{
  "contractName": "KYC",
  "abi": [
    {
      "inputs": [
        {
          "internalType": "string",
          "name": "name_",
          "type": "string"
        },
        {
          "internalType": "string",
          "name": "email_",
          "type": "string"
        }
      ],
      "stateMutability": "nonpayable",
      "type": "constructor"
    },
    {
      "anonymous": false,
      "inputs": [
        {
          "indexed": false,
          "internalType": "address",
          "name": "id_",
          "type": "address"
        },
        {
          "indexed": false,
          "internalType": "string",
          "name": "name",
          "type": "string"
        },
        {
          "indexed": false,
          "internalType": "string",
          "name": "email",
          "type": "string"
        }
      ],
      "name": "CustomerAdded",
      "type": "event"
    },
    {
      "anonymous": false,
      "inputs": [
        {
          "indexed": false,
          "internalType": "address",
          "name": "id_",
          "type": "address"
        },
        {
          "indexed": false,
          "internalType": "string",
          "name": "name",
          "type": "string"
        },
        {
          "indexed": false,
          "internalType": "string",
          "name": "email",
          "type": "string"
        }
      ],
      "name": "CustomerDataUpdated",
      "type": "event"
    },
    {
      "anonymous": false,
      "inputs": [
        {
          "indexed": false,
          "internalType": "string",
          "name": "reqId",
          "type": "string"
        },
        {
          "indexed": false,
          "internalType": "address",
          "name": "customerId",
          "type": "address"
        },
        {
          "indexed": false,
          "internalType": "address",
          "name": "organizationId",
          "type": "address"
        },
        {
          "indexed": false,
          "internalType": "enum Types.DataHashStatus",
          "name": "status",
          "type": "uint8"
        }
      ],
      "name": "DataHashPermissionChanged",
      "type": "event"
    },
    {
      "anonymous": false,
      "inputs": [
        {
          "indexed": false,
          "internalType": "address",
          "name": "id_",
          "type": "address"
        },
        {
          "indexed": false,
          "internalType": "string",
          "name": "customerName",
          "type": "string"
        },
        {
          "indexed": false,
          "internalType": "string",
          "name": "dataHash",
          "type": "string"
        }
      ],
      "name": "DataHashUpdated",
      "type": "event"
    },
    {
      "anonymous": false,
      "inputs": [
        {
          "indexed": false,
          "internalType": "string",
          "name": "reqId",
          "type": "string"
        },
        {
          "indexed": false,
          "internalType": "string",
          "name": "organizationName",
          "type": "string"
        },
        {
          "indexed": false,
          "internalType": "string",
          "name": "customerName",
          "type": "string"
        }
      ],
      "name": "KycReRequested",
      "type": "event"
    },
    {
      "anonymous": false,
      "inputs": [
        {
          "indexed": false,
          "internalType": "string",
          "name": "reqId",
          "type": "string"
        },
        {
          "indexed": false,
          "internalType": "string",
          "name": "organizationName",
          "type": "string"
        },
        {
          "indexed": false,
          "internalType": "string",
          "name": "customerName",
          "type": "string"
        }
      ],
      "name": "KycRequestAdded",
      "type": "event"
    },
    {
      "anonymous": false,
      "inputs": [
        {
          "indexed": false,
          "internalType": "string",
          "name": "reqId",
          "type": "string"
        },
        {
          "indexed": false,
          "internalType": "address",
          "name": "customerId",
          "type": "address"
        },
        {
          "indexed": false,
          "internalType": "address",
          "name": "organizationId",
          "type": "address"
        },
        {
          "indexed": false,
          "internalType": "enum Types.KycStatus",
          "name": "status",
          "type": "uint8"
        }
      ],
      "name": "KycStatusChanged",
      "type": "event"
    },
    {
      "anonymous": false,
      "inputs": [
        {
          "indexed": false,
          "internalType": "address",
          "name": "id_",
          "type": "address"
        },
        {
          "indexed": false,
          "internalType": "string",
          "name": "name",
          "type": "string"
        }
      ],
      "name": "OrganizationActivated",
      "type": "event"
    },
    {
      "anonymous": false,
      "inputs": [
        {
          "indexed": false,
          "internalType": "address",
          "name": "id_",
          "type": "address"
        },
        {
          "indexed": false,
          "internalType": "string",
          "name": "name",
          "type": "string"
        },
        {
          "indexed": false,
          "internalType": "string",
          "name": "email",
          "type": "string"
        },
        {
          "indexed": false,
          "internalType": "string",
          "name": "ifscCode",
          "type": "string"
        }
      ],
      "name": "OrganizationAdded",
      "type": "event"
    },
    {
      "anonymous": false,
      "inputs": [
        {
          "indexed": false,
          "internalType": "address",
          "name": "id_",
          "type": "address"
        },
        {
          "indexed": false,
          "internalType": "string",
          "name": "name",
          "type": "string"
        }
      ],
      "name": "OrganizationDeactivated",
      "type": "event"
    },
    {
      "anonymous": false,
      "inputs": [
        {
          "indexed": false,
          "internalType": "address",
          "name": "id_",
          "type": "address"
        },
        {
          "indexed": false,
          "internalType": "string",
          "name": "name",
          "type": "string"
        },
        {
          "indexed": false,
          "internalType": "string",
          "name": "email",
          "type": "string"
        }
      ],
      "name": "OrganizationUpdated",
      "type": "event"
    },
    {
      "inputs": [
        {
          "internalType": "uint256",
          "name": "pageNumber",
          "type": "uint256"
        }
      ],
      "name": "getAllOrganizations",
      "outputs": [
        {
          "internalType": "uint256",
          "name": "totalPages",
          "type": "uint256"
        },
        {
          "components": [
            {
              "internalType": "string",
              "name": "name",
              "type": "string"
            },
            {
              "internalType": "string",
              "name": "email",
              "type": "string"
            },
            {
              "internalType": "address",
              "name": "id_",
              "type": "address"
            },
            {
              "internalType": "string",
              "name": "ifscCode",
              "type": "string"
            },
            {
              "internalType": "uint16",
              "name": "kycCount",
              "type": "uint16"
            },
            {
              "internalType": "enum Types.OrganizationStatus",
              "name": "status",
              "type": "uint8"
            }
          ],
          "internalType": "struct Types.Organization[]",
          "name": "",
          "type": "tuple[]"
        }
      ],
      "stateMutability": "view",
      "type": "function",
      "constant": true
    },
    {
      "inputs": [
        {
          "components": [
            {
              "internalType": "string",
              "name": "name",
              "type": "string"
            },
            {
              "internalType": "string",
              "name": "email",
              "type": "string"
            },
            {
              "internalType": "address",
              "name": "id_",
              "type": "address"
            },
            {
              "internalType": "string",
              "name": "ifscCode",
              "type": "string"
            },
            {
              "internalType": "uint16",
              "name": "kycCount",
              "type": "uint16"
            },
            {
              "internalType": "enum Types.OrganizationStatus",
              "name": "status",
              "type": "uint8"
            }
          ],
          "internalType": "struct Types.Organization",
          "name": "organization_",
          "type": "tuple"
        }
      ],
      "name": "addOrganization",
      "outputs": [],
      "stateMutability": "nonpayable",
      "type": "function"
    },
    {
      "inputs": [
        {
          "internalType": "address",
          "name": "id_",
          "type": "address"
        },
        {
          "internalType": "string",
          "name": "email_",
          "type": "string"
        },
        {
          "internalType": "string",
          "name": "name_",
          "type": "string"
        }
      ],
      "name": "updateOrganizationDetails",
      "outputs": [],
      "stateMutability": "nonpayable",
      "type": "function"
    },
    {
      "inputs": [
        {
          "internalType": "address",
          "name": "id_",
          "type": "address"
        },
        {
          "internalType": "bool",
          "name": "makeActive_",
          "type": "bool"
        }
      ],
      "name": "activateDeactivateOrganization",
      "outputs": [],
      "stateMutability": "nonpayable",
      "type": "function"
    },
    {
      "inputs": [
        {
          "internalType": "uint256",
          "name": "pageNumber",
          "type": "uint256"
        }
      ],
      "name": "getCustomersOfOrganization",
      "outputs": [
        {
          "internalType": "uint256",
          "name": "totalPages",
          "type": "uint256"
        },
        {
          "components": [
            {
              "internalType": "string",
              "name": "id_",
              "type": "string"
            },
            {
              "internalType": "address",
              "name": "userId_",
              "type": "address"
            },
            {
              "internalType": "string",
              "name": "customerName",
              "type": "string"
            },
            {
              "internalType": "address",
              "name": "organizationId_",
              "type": "address"
            },
            {
              "internalType": "string",
              "name": "organizationName",
              "type": "string"
            },
            {
              "internalType": "string",
              "name": "dataHash",
              "type": "string"
            },
            {
              "internalType": "uint256",
              "name": "updatedOn",
              "type": "uint256"
            },
            {
              "internalType": "enum Types.KycStatus",
              "name": "status",
              "type": "uint8"
            },
            {
              "internalType": "enum Types.DataHashStatus",
              "name": "dataRequest",
              "type": "uint8"
            },
            {
              "internalType": "string",
              "name": "additionalNotes",
              "type": "string"
            }
          ],
          "internalType": "struct Types.KycRequest[]",
          "name": "",
          "type": "tuple[]"
        }
      ],
      "stateMutability": "view",
      "type": "function",
      "constant": true
    },
    {
      "inputs": [
        {
          "components": [
            {
              "internalType": "string",
              "name": "name",
              "type": "string"
            },
            {
              "internalType": "string",
              "name": "email",
              "type": "string"
            },
            {
              "internalType": "string",
              "name": "mobileNumber",
              "type": "string"
            },
            {
              "internalType": "address",
              "name": "id_",
              "type": "address"
            },
            {
              "internalType": "address",
              "name": "kycVerifiedBy",
              "type": "address"
            },
            {
              "internalType": "string",
              "name": "dataHash",
              "type": "string"
            },
            {
              "internalType": "uint256",
              "name": "dataUpdatedOn",
              "type": "uint256"
            }
          ],
          "internalType": "struct Types.Customer",
          "name": "customer_",
          "type": "tuple"
        },
        {
          "internalType": "uint256",
          "name": "currentTime_",
          "type": "uint256"
        },
        {
          "internalType": "string",
          "name": "notes_",
          "type": "string"
        }
      ],
      "name": "addKycRequest",
      "outputs": [],
      "stateMutability": "nonpayable",
      "type": "function"
    },
    {
      "inputs": [
        {
          "internalType": "address",
          "name": "id_",
          "type": "address"
        },
        {
          "internalType": "string",
          "name": "notes_",
          "type": "string"
        }
      ],
      "name": "reRequestForKycRequest",
      "outputs": [],
      "stateMutability": "nonpayable",
      "type": "function"
    },
    {
      "inputs": [
        {
          "internalType": "address",
          "name": "userId_",
          "type": "address"
        },
        {
          "internalType": "bool",
          "name": "verified_",
          "type": "bool"
        },
        {
          "internalType": "string",
          "name": "note_",
          "type": "string"
        }
      ],
      "name": "updateKycVerification",
      "outputs": [],
      "stateMutability": "nonpayable",
      "type": "function"
    },
    {
      "inputs": [
        {
          "internalType": "address",
          "name": "id_",
          "type": "address"
        }
      ],
      "name": "searchCustomers",
      "outputs": [
        {
          "internalType": "bool",
          "name": "",
          "type": "bool"
        },
        {
          "components": [
            {
              "internalType": "string",
              "name": "name",
              "type": "string"
            },
            {
              "internalType": "string",
              "name": "email",
              "type": "string"
            },
            {
              "internalType": "string",
              "name": "mobileNumber",
              "type": "string"
            },
            {
              "internalType": "address",
              "name": "id_",
              "type": "address"
            },
            {
              "internalType": "address",
              "name": "kycVerifiedBy",
              "type": "address"
            },
            {
              "internalType": "string",
              "name": "dataHash",
              "type": "string"
            },
            {
              "internalType": "uint256",
              "name": "dataUpdatedOn",
              "type": "uint256"
            }
          ],
          "internalType": "struct Types.Customer",
          "name": "",
          "type": "tuple"
        },
        {
          "components": [
            {
              "internalType": "string",
              "name": "id_",
              "type": "string"
            },
            {
              "internalType": "address",
              "name": "userId_",
              "type": "address"
            },
            {
              "internalType": "string",
              "name": "customerName",
              "type": "string"
            },
            {
              "internalType": "address",
              "name": "organizationId_",
              "type": "address"
            },
            {
              "internalType": "string",
              "name": "organizationName",
              "type": "string"
            },
            {
              "internalType": "string",
              "name": "dataHash",
              "type": "string"
            },
            {
              "internalType": "uint256",
              "name": "updatedOn",
              "type": "uint256"
            },
            {
              "internalType": "enum Types.KycStatus",
              "name": "status",
              "type": "uint8"
            },
            {
              "internalType": "enum Types.DataHashStatus",
              "name": "dataRequest",
              "type": "uint8"
            },
            {
              "internalType": "string",
              "name": "additionalNotes",
              "type": "string"
            }
          ],
          "internalType": "struct Types.KycRequest",
          "name": "",
          "type": "tuple"
        }
      ],
      "stateMutability": "view",
      "type": "function",
      "constant": true
    },
    {
      "inputs": [
        {
          "internalType": "uint256",
          "name": "pageNumber",
          "type": "uint256"
        }
      ],
      "name": "getOrganizationRequests",
      "outputs": [
        {
          "internalType": "uint256",
          "name": "totalPages",
          "type": "uint256"
        },
        {
          "components": [
            {
              "internalType": "string",
              "name": "id_",
              "type": "string"
            },
            {
              "internalType": "address",
              "name": "userId_",
              "type": "address"
            },
            {
              "internalType": "string",
              "name": "customerName",
              "type": "string"
            },
            {
              "internalType": "address",
              "name": "organizationId_",
              "type": "address"
            },
            {
              "internalType": "string",
              "name": "organizationName",
              "type": "string"
            },
            {
              "internalType": "string",
              "name": "dataHash",
              "type": "string"
            },
            {
              "internalType": "uint256",
              "name": "updatedOn",
              "type": "uint256"
            },
            {
              "internalType": "enum Types.KycStatus",
              "name": "status",
              "type": "uint8"
            },
            {
              "internalType": "enum Types.DataHashStatus",
              "name": "dataRequest",
              "type": "uint8"
            },
            {
              "internalType": "string",
              "name": "additionalNotes",
              "type": "string"
            }
          ],
          "internalType": "struct Types.KycRequest[]",
          "name": "",
          "type": "tuple[]"
        }
      ],
      "stateMutability": "view",
      "type": "function",
      "constant": true
    },
    {
      "inputs": [
        {
          "internalType": "address",
          "name": "organizationId_",
          "type": "address"
        },
        {
          "internalType": "bool",
          "name": "approve_",
          "type": "bool"
        },
        {
          "internalType": "string",
          "name": "note_",
          "type": "string"
        }
      ],
      "name": "actionOnKycRequest",
      "outputs": [],
      "stateMutability": "nonpayable",
      "type": "function"
    },
    {
      "inputs": [
        {
          "internalType": "string",
          "name": "name_",
          "type": "string"
        },
        {
          "internalType": "string",
          "name": "email_",
          "type": "string"
        },
        {
          "internalType": "string",
          "name": "mobile_",
          "type": "string"
        }
      ],
      "name": "updateProfile",
      "outputs": [],
      "stateMutability": "nonpayable",
      "type": "function"
    },
    {
      "inputs": [
        {
          "internalType": "string",
          "name": "hash_",
          "type": "string"
        },
        {
          "internalType": "uint256",
          "name": "currentTime_",
          "type": "uint256"
        }
      ],
      "name": "updateDatahash",
      "outputs": [],
      "stateMutability": "nonpayable",
      "type": "function"
    },
    {
      "inputs": [
        {
          "internalType": "address",
          "name": "organizationId_",
          "type": "address"
        },
        {
          "internalType": "string",
          "name": "notes_",
          "type": "string"
        }
      ],
      "name": "removerDatahashPermission",
      "outputs": [],
      "stateMutability": "nonpayable",
      "type": "function"
    },
    {
      "inputs": [
        {
          "internalType": "address",
          "name": "organizationId_",
          "type": "address"
        }
      ],
      "name": "searchOrganizations",
      "outputs": [
        {
          "internalType": "bool",
          "name": "",
          "type": "bool"
        },
        {
          "components": [
            {
              "internalType": "string",
              "name": "name",
              "type": "string"
            },
            {
              "internalType": "string",
              "name": "email",
              "type": "string"
            },
            {
              "internalType": "address",
              "name": "id_",
              "type": "address"
            },
            {
              "internalType": "string",
              "name": "ifscCode",
              "type": "string"
            },
            {
              "internalType": "uint16",
              "name": "kycCount",
              "type": "uint16"
            },
            {
              "internalType": "enum Types.OrganizationStatus",
              "name": "status",
              "type": "uint8"
            }
          ],
          "internalType": "struct Types.Organization",
          "name": "",
          "type": "tuple"
        },
        {
          "components": [
            {
              "internalType": "string",
              "name": "id_",
              "type": "string"
            },
            {
              "internalType": "address",
              "name": "userId_",
              "type": "address"
            },
            {
              "internalType": "string",
              "name": "customerName",
              "type": "string"
            },
            {
              "internalType": "address",
              "name": "organizationId_",
              "type": "address"
            },
            {
              "internalType": "string",
              "name": "organizationName",
              "type": "string"
            },
            {
              "internalType": "string",
              "name": "dataHash",
              "type": "string"
            },
            {
              "internalType": "uint256",
              "name": "updatedOn",
              "type": "uint256"
            },
            {
              "internalType": "enum Types.KycStatus",
              "name": "status",
              "type": "uint8"
            },
            {
              "internalType": "enum Types.DataHashStatus",
              "name": "dataRequest",
              "type": "uint8"
            },
            {
              "internalType": "string",
              "name": "additionalNotes",
              "type": "string"
            }
          ],
          "internalType": "struct Types.KycRequest",
          "name": "",
          "type": "tuple"
        }
      ],
      "stateMutability": "view",
      "type": "function",
      "constant": true
    },
    {
      "inputs": [],
      "name": "whoAmI",
      "outputs": [
        {
          "components": [
            {
              "internalType": "string",
              "name": "name",
              "type": "string"
            },
            {
              "internalType": "string",
              "name": "email",
              "type": "string"
            },
            {
              "internalType": "address",
              "name": "id_",
              "type": "address"
            },
            {
              "internalType": "enum Types.Role",
              "name": "role",
              "type": "uint8"
            },
            {
              "internalType": "enum Types.OrganizationStatus",
              "name": "status",
              "type": "uint8"
            }
          ],
          "internalType": "struct Types.User",
          "name": "",
          "type": "tuple"
        }
      ],
      "stateMutability": "view",
      "type": "function",
      "constant": true
    },
    {
      "inputs": [
        {
          "internalType": "address",
          "name": "id_",
          "type": "address"
        }
      ],
      "name": "getCustomerDetails",
      "outputs": [
        {
          "components": [
            {
              "internalType": "string",
              "name": "name",
              "type": "string"
            },
            {
              "internalType": "string",
              "name": "email",
              "type": "string"
            },
            {
              "internalType": "string",
              "name": "mobileNumber",
              "type": "string"
            },
            {
              "internalType": "address",
              "name": "id_",
              "type": "address"
            },
            {
              "internalType": "address",
              "name": "kycVerifiedBy",
              "type": "address"
            },
            {
              "internalType": "string",
              "name": "dataHash",
              "type": "string"
            },
            {
              "internalType": "uint256",
              "name": "dataUpdatedOn",
              "type": "uint256"
            }
          ],
          "internalType": "struct Types.Customer",
          "name": "",
          "type": "tuple"
        }
      ],
      "stateMutability": "view",
      "type": "function",
      "constant": true
    },
    {
      "inputs": [
        {
          "internalType": "address",
          "name": "id_",
          "type": "address"
        }
      ],
      "name": "getOrganizationDetails",
      "outputs": [
        {
          "components": [
            {
              "internalType": "string",
              "name": "name",
              "type": "string"
            },
            {
              "internalType": "string",
              "name": "email",
              "type": "string"
            },
            {
              "internalType": "address",
              "name": "id_",
              "type": "address"
            },
            {
              "internalType": "string",
              "name": "ifscCode",
              "type": "string"
            },
            {
              "internalType": "uint16",
              "name": "kycCount",
              "type": "uint16"
            },
            {
              "internalType": "enum Types.OrganizationStatus",
              "name": "status",
              "type": "uint8"
            }
          ],
          "internalType": "struct Types.Organization",
          "name": "",
          "type": "tuple"
        }
      ],
      "stateMutability": "view",
      "type": "function",
      "constant": true
    }
  ],
  "bytecode": "0x60806040523480156200001157600080fd5b5060405162005c9138038062005c91833981016040819052620000349162000296565b60048054600160a060020a031916339081179091556040805160a08101825284815260208082018590528183018490526000606083018190526080830181905293845260069052912081518291908190620000909082620003d7565b5060208201516001820190620000a79082620003d7565b50604082015160028083018054600160a060020a03909316600160a060020a03198416811782556060860151939192600160a860020a03199092161790740100000000000000000000000000000000000000009084908111156200010f576200010f62000300565b0217905550608082015160028201805460a860020a60ff021916750100000000000000000000000000000000000000000083600181111562000155576200015562000300565b021790555050600454600580546001810182556000919091527f036b6384b5eca791c62761152d0c79bb0604c104a5fb6f4eb0703f3154bb3db0018054600160a060020a031916600160a060020a0390921691909117905550620004a992505050565b7f4e487b7100000000000000000000000000000000000000000000000000000000600052604160045260246000fd5b600082601f830112620001f957600080fd5b81516001604060020a0380821115620002165762000216620001b8565b604051601f8301601f19908116603f01168101908282118183101715620002415762000241620001b8565b816040528381526020925086838588010111156200025e57600080fd5b600091505b8382101562000282578582018301518183018401529082019062000263565b600093810190920192909252949350505050565b60008060408385031215620002aa57600080fd5b82516001604060020a0380821115620002c257600080fd5b620002d086838701620001e7565b93506020850151915080821115620002e757600080fd5b50620002f685828601620001e7565b9150509250929050565b7f4e487b7100000000000000000000000000000000000000000000000000000000600052602160045260246000fd5b6002810460018216806200034457607f821691505b6020821081036200037e577f4e487b7100000000000000000000000000000000000000000000000000000000600052602260045260246000fd5b50919050565b601f821115620003d2576000818152602081206020601f86010481016020861015620003ad5750805b6020601f860104820191505b81811015620003ce57828155600101620003b9565b5050505b505050565b81516001604060020a03811115620003f357620003f3620001b8565b6200040b816200040484546200032f565b8462000384565b602080601f8311600181146200044757600084156200042a5750858301515b60028086026008870290910a6000190419821617865550620003ce565b600085815260208120601f198616915b82811015620004785788860151825594840194600190910190840162000457565b50858210156200049957878501516008601f88160260020a60001904191681555b5050505050600202600101905550565b6157d880620004b96000396000f3fe608060405234801561001057600080fd5b5060043610610133576000357c0100000000000000000000000000000000000000000000000000000000900480638915fb0c116100bf578063ca30a8641161008e578063ca30a8641461028e578063cfaeeb3c146102a1578063d677ead3146102b4578063da91254c146102c7578063dc57d07e146102dc57600080fd5b80638915fb0c14610226578063b797bbe814610239578063bbf95d6b1461024c578063c0dc3c1c1461026d57600080fd5b806334b524111161010657806334b524111461019c5780633f2c0e96146101af57806355bd72b9146101c25780635f4d6ddf146101e457806361ba81d81461020657600080fd5b80630c60f83d146101385780631105a5eb146101615780631af0271f146101765780631bdd5a0f14610189575b600080fd5b61014b61014636600461487f565b6102ef565b604051610158919061498d565b60405180910390f35b61017461016f366004614a92565b610458565b005b610174610184366004614b3b565b61054a565b610174610197366004614c23565b61070e565b6101746101aa366004614c81565b610994565b6101746101bd366004614c23565b610c48565b6101d56101d036600461487f565b610e02565b60405161015893929190614e95565b6101f76101f236600461487f565b611436565b60405161015893929190614ec2565b61021961021436600461487f565b611a1f565b6040516101589190614edd565b610174610234366004614ef0565b611b07565b610174610247366004614f35565b611d74565b61025f61025a366004615053565b6122e9565b60405161015892919061506c565b61028061027b366004615053565b6123d6565b6040516101589291906150d5565b61017461029c366004615130565b61241b565b6101746102af366004615163565b6124ba565b61025f6102c2366004615053565b612540565b6102cf6125f9565b604051610158919061519e565b6101746102ea366004614c81565b612860565b6102f7614729565b81600160a060020a03811661032a5760405160e560020a62461bcd02815260040161032190615214565b60405180910390fd5b600160a060020a03818116600090815260016020526040902060030154166103675760405160e560020a62461bcd0281526004016103219061524b565b600160a060020a0381166000908152600160208190526040909120018054610426919061039390615282565b80601f01602080910402602001604051908101604052809291908181526020018280546103bf90615282565b801561040c5780601f106103e15761010080835404028352916020019161040c565b820191906000526020600020905b8154815290600101906020018083116103ef57829003601f168201915b505050505060405180602001604052806000815250612a75565b156104465760405160e560020a62461bcd028152600401610321906152b9565b61044f83612acf565b91505b50919050565b33806104795760405160e560020a62461bcd02815260040161032190615214565b600160a060020a03818116600090815260016020526040902060030154166104b65760405160e560020a62461bcd0281526004016103219061524b565b600160a060020a03811660009081526001602081905260409091200180546104e2919061039390615282565b156105025760405160e560020a62461bcd028152600401610321906152b9565b61050d848484612d76565b336000908152600660205260409020610526858261533f565b50336000908152600660205260409020600101610543848261533f565b5050505050565b600454600160a060020a031633146105775760405160e560020a62461bcd02815260040161032190615405565b61058081612e0b565b6040805160a08101825282518152602080840151818301528383018051600160a060020a0390811684860152600160608501526000608085018190529151168152600690915291909120815181906105d8908261533f565b50602082015160018201906105ed908261533f565b50604082015160028083018054600160a060020a03909316600160a060020a0319841681178255606086015193919274ffffffffffffffffffffffffffffffffffffffffff1990921617907401000000000000000000000000000000000000000090849081111561066057610660614cd5565b0217905550608082015160028201805475ff000000000000000000000000000000000000000000191675010000000000000000000000000000000000000000008360018111156106b2576106b2614cd5565b0217905550505060400151600580546001810182556000919091527f036b6384b5eca791c62761152d0c79bb0604c104a5fb6f4eb0703f3154bb3db0018054600160a060020a031916600160a060020a03909216919091179055565b33600081815260036020526040902060020154600160a060020a03166107495760405160e560020a62461bcd0281526004016103219061543c565b600160a060020a03808216600081815260036020526040902060020154909116146107895760405160e560020a62461bcd0281526004016103219061543c565b6000600160a060020a03821660009081526003602052604090206004015462010000900460ff1660018111156107c1576107c1614cd5565b146107e15760405160e560020a62461bcd02815260040161032190615473565b60006107ed3385612fde565b90506107f881613026565b6108475760405160e560020a62461bcd02815260206004820152601160248201527f4b594320726571206e6f7420666f756e640000000000000000000000000000006044820152606401610321565b61085084613142565b61089f5760405160e560020a62461bcd02815260206004820152600e60248201527f55736572206e6f7420666f756e640000000000000000000000000000000000006044820152606401610321565b60006007826040516108b191906154aa565b908152604051908190036020019020600701805461ff0019166101008360028111156108df576108df614cd5565b0217905550826007826040516108f591906154aa565b90815260200160405180910390206008019081610912919061533f565b507f524a348eaa0159a5bd9d05667fe8d01e3fef50369ae5f27c2ade107c84bfeaf78160078360405161094591906154aa565b908152602001604051809103902060040160078460405161096691906154aa565b908152602001604051809103902060020160405161098693929190615542565b60405180910390a150505050565b33806109b55760405160e560020a62461bcd02815260040161032190615214565b600160a060020a03818116600090815260016020526040902060030154166109f25760405160e560020a62461bcd0281526004016103219061524b565b600160a060020a0381166000908152600160208190526040909120018054610a1e919061039390615282565b15610a3e5760405160e560020a62461bcd028152600401610321906152b9565b600160a060020a03808516600090815260036020526040902060020154859116610a7d5760405160e560020a62461bcd0281526004016103219061543c565b600160a060020a0380821660008181526003602052604090206002015490911614610abd5760405160e560020a62461bcd0281526004016103219061543c565b6000600160a060020a03821660009081526003602052604090206004015462010000900460ff166001811115610af557610af5614cd5565b14610b155760405160e560020a62461bcd02815260040161032190615473565b6000610b218633612fde565b9050610b2c81613026565b610b7b5760405160e560020a62461bcd02815260206004820152601960248201527f5573657220646f65736e27742068617665204b594320726571000000000000006044820152606401610321565b60008515610b8b57506001610b8f565b5060025b80600783604051610ba091906154aa565b908152604051908190036020019020600701805461ff001916610100836002811115610bce57610bce614cd5565b021790555084600783604051610be491906154aa565b90815260200160405180910390206008019081610c01919061533f565b507f9a3f3f9de5ac964f84f08c6124f7b844ffd73de3fd4b472eb59f6b68e5729a8182338984604051610c37949392919061557b565b60405180910390a150505050505050565b3380610c695760405160e560020a62461bcd02815260040161032190615214565b600160a060020a0381811660009081526001602052604090206003015416610ca65760405160e560020a62461bcd0281526004016103219061524b565b600160a060020a0381166000908152600160208190526040909120018054610cd2919061039390615282565b15610cf25760405160e560020a62461bcd028152600401610321906152b9565b6000610cfe8433612fde565b9050610d0981613026565b610d585760405160e560020a62461bcd02815260206004820152601460248201527f5065726d697373696f6e206e6f7420666f756e640000000000000000000000006044820152606401610321565b6002600782604051610d6a91906154aa565b908152604051908190036020019020600701805461ff001916610100836002811115610d9857610d98614cd5565b021790555082600782604051610dae91906154aa565b90815260200160405180910390206008019081610dcb919061533f565b507f9a3f3f9de5ac964f84f08c6124f7b844ffd73de3fd4b472eb59f6b68e5729a818133866002604051610986949392919061557b565b6000610e0c614778565b610e146147aa565b3380610e355760405160e560020a62461bcd02815260040161032190615214565b600160a060020a0381811660009081526001602052604090206003015416610e725760405160e560020a62461bcd0281526004016103219061524b565b600160a060020a0381166000908152600160208190526040909120018054610e9e919061039390615282565b15610ebe5760405160e560020a62461bcd028152600401610321906152b9565b600160a060020a03808616600090815260036020526040902060020154869116610efd5760405160e560020a62461bcd0281526004016103219061543c565b600160a060020a0380821660008181526003602052604090206002015490911614610f3d5760405160e560020a62461bcd0281526004016103219061543c565b6000600160a060020a03821660009081526003602052604090206004015462010000900460ff166001811115610f7557610f75614cd5565b14610f955760405160e560020a62461bcd02815260040161032190615473565b6000610f9f614778565b610fa76147aa565b3360009081526009602090815260408083208054825181850281018501909352808352919290919083018282801561100857602002820191906000526020600020905b8154600160a060020a03168152600190910190602001808311610fea575b5050505050905060005b8151811015611426578a600160a060020a0316828281518110611037576110376155bf565b6020026020010151600160a060020a031603611414576001945061105a8b613200565b935060076110688c33612fde565b60405161107591906154aa565b90815260200160405180910390206040518061014001604052908160008201805461109f90615282565b80601f01602080910402602001604051908101604052809291908181526020018280546110cb90615282565b80156111185780601f106110ed57610100808354040283529160200191611118565b820191906000526020600020905b8154815290600101906020018083116110fb57829003601f168201915b50505091835250506001820154600160a060020a0316602082015260028201805460409092019161114890615282565b80601f016020809104026020016040519081016040528092919081815260200182805461117490615282565b80156111c15780601f10611196576101008083540402835291602001916111c1565b820191906000526020600020905b8154815290600101906020018083116111a457829003601f168201915b50505091835250506003820154600160a060020a031660208201526004820180546040909201916111f190615282565b80601f016020809104026020016040519081016040528092919081815260200182805461121d90615282565b801561126a5780601f1061123f5761010080835404028352916020019161126a565b820191906000526020600020905b81548152906001019060200180831161124d57829003601f168201915b5050505050815260200160058201805461128390615282565b80601f01602080910402602001604051908101604052809291908181526020018280546112af90615282565b80156112fc5780601f106112d1576101008083540402835291602001916112fc565b820191906000526020600020905b8154815290600101906020018083116112df57829003601f168201915b505050918352505060068201546020820152600782015460409091019060ff16600281111561132d5761132d614cd5565b600281111561133e5761133e614cd5565b81526020016007820160019054906101000a900460ff16600281111561136657611366614cd5565b600281111561137757611377614cd5565b815260200160088201805461138b90615282565b80601f01602080910402602001604051908101604052809291908181526020018280546113b790615282565b80156114045780601f106113d957610100808354040283529160200191611404565b820191906000526020600020905b8154815290600101906020018083116113e757829003601f168201915b5050505050815250509250611426565b8061141e816155f1565b915050611012565b5092999198509650945050505050565b6000611440614729565b6114486147aa565b83600160a060020a0381166114725760405160e560020a62461bcd02815260040161032190615214565b600160a060020a03818116600090815260016020526040902060030154166114af5760405160e560020a62461bcd0281526004016103219061524b565b600160a060020a03811660009081526001602081905260409091200180546114db919061039390615282565b156114fb5760405160e560020a62461bcd028152600401610321906152b9565b33600081815260036020526040902060020154600160a060020a03166115365760405160e560020a62461bcd0281526004016103219061543c565b600160a060020a03808216600081815260036020526040902060020154909116146115765760405160e560020a62461bcd0281526004016103219061543c565b6000600160a060020a03821660009081526003602052604090206004015462010000900460ff1660018111156115ae576115ae614cd5565b146115ce5760405160e560020a62461bcd02815260040161032190615473565b60006115d8614729565b6115e06147aa565b336000908152600860209081526040918290208054835181840281018401909452808452611651938d939092919083018282801561164757602002820191906000526020600020905b8154600160a060020a03168152600190910190602001808311611629575b5050505050613498565b90935091508215611a10576007611668338b612fde565b60405161167591906154aa565b90815260200160405180910390206040518061014001604052908160008201805461169f90615282565b80601f01602080910402602001604051908101604052809291908181526020018280546116cb90615282565b80156117185780601f106116ed57610100808354040283529160200191611718565b820191906000526020600020905b8154815290600101906020018083116116fb57829003601f168201915b50505091835250506001820154600160a060020a0316602082015260028201805460409092019161174890615282565b80601f016020809104026020016040519081016040528092919081815260200182805461177490615282565b80156117c15780601f10611796576101008083540402835291602001916117c1565b820191906000526020600020905b8154815290600101906020018083116117a457829003601f168201915b50505091835250506003820154600160a060020a031660208201526004820180546040909201916117f190615282565b80601f016020809104026020016040519081016040528092919081815260200182805461181d90615282565b801561186a5780601f1061183f5761010080835404028352916020019161186a565b820191906000526020600020905b81548152906001019060200180831161184d57829003601f168201915b5050505050815260200160058201805461188390615282565b80601f01602080910402602001604051908101604052809291908181526020018280546118af90615282565b80156118fc5780601f106118d1576101008083540402835291602001916118fc565b820191906000526020600020905b8154815290600101906020018083116118df57829003601f168201915b505050918352505060068201546020820152600782015460409091019060ff16600281111561192d5761192d614cd5565b600281111561193e5761193e614cd5565b81526020016007820160019054906101000a900460ff16600281111561196657611966614cd5565b600281111561197757611977614cd5565b815260200160088201805461198b90615282565b80601f01602080910402602001604051908101604052809291908181526020018280546119b790615282565b8015611a045780601f106119d957610100808354040283529160200191611a04565b820191906000526020600020905b8154815290600101906020018083116119e757829003601f168201915b50505050508152505090505b91989097509095509350505050565b611a27614778565b600160a060020a03808316600090815260036020526040902060020154839116611a665760405160e560020a62461bcd0281526004016103219061543c565b600160a060020a0380821660008181526003602052604090206002015490911614611aa65760405160e560020a62461bcd0281526004016103219061543c565b6000600160a060020a03821660009081526003602052604090206004015462010000900460ff166001811115611ade57611ade614cd5565b14611afe5760405160e560020a62461bcd02815260040161032190615473565b61044f83613200565b3380611b285760405160e560020a62461bcd02815260040161032190615214565b600160a060020a0381811660009081526001602052604090206003015416611b655760405160e560020a62461bcd0281526004016103219061524b565b600160a060020a0381166000908152600160208190526040909120018054611b91919061039390615282565b15611bb15760405160e560020a62461bcd028152600401610321906152b9565b611bbb83836137b9565b33600090815260096020908152604080832080548251818502810185019093528083529192909190830182828015611c1c57602002820191906000526020600020905b8154600160a060020a03168152600190910190602001808311611bfe575b5050505050905060005b8151811015610543576000611c54838381518110611c4657611c466155bf565b602002602001015133612fde565b9050611c5f81613026565b15611d615785600782604051611c7591906154aa565b90815260200160405180910390206005019081611c92919061533f565b5084600782604051611ca491906154aa565b9081526020016040518091039020600601819055506000600782604051611ccb91906154aa565b908152604051908190036020019020600701805460ff19166001836002811115611cf757611cf7614cd5565b02179055506040518060400160405280601381526020017f5570646174656420616c6c206d7920646f637300000000000000000000000000815250600782604051611d4291906154aa565b90815260200160405180910390206008019081611d5f919061533f565b505b5080611d6c816155f1565b915050611c26565b33600081815260036020526040902060020154600160a060020a0316611daf5760405160e560020a62461bcd0281526004016103219061543c565b600160a060020a0380821660008181526003602052604090206002015490911614611def5760405160e560020a62461bcd0281526004016103219061543c565b6000600160a060020a03821660009081526003602052604090206004015462010000900460ff166001811115611e2757611e27614cd5565b14611e475760405160e560020a62461bcd02815260040161032190615473565b6000611e57338660600151612fde565b9050611e6281613026565b15611eb25760405160e560020a62461bcd02815260206004820152601160248201527f5573657220686164206b7963207265712e0000000000000000000000000000006044820152606401610321565b6040518061014001604052808281526020018660600151600160a060020a031681526020018660000151815260200133600160a060020a03168152602001611ef933613200565b51815260a0870151602082015260408101869052606001600081526020016000815260200184815250600782604051611f3291906154aa565b90815260405190819003602001902081518190611f4f908261533f565b506020820151600182018054600160a060020a031916600160a060020a0390921691909117905560408201516002820190611f8a908261533f565b506060820151600382018054600160a060020a031916600160a060020a0390921691909117905560808201516004820190611fc5908261533f565b5060a08201516005820190611fda908261533f565b5060c0820151600682015560e082015160078201805460ff1916600183600281111561200857612008614cd5565b0217905550610100828101516007830180549192909161ff0019169083600281111561203657612036614cd5565b02179055506101208201516008820190612050908261533f565b505033600081815260086020908152604080832060608b018051825460018181018555938752858720018054600160a060020a03928316600160a060020a031991821617909155915116855260098452828520805492830181558552929093209092018054909116909217909155517f1c9ca7942139211bfb75ec030ee95c38e96f4eb7d755b28d3eede55f8d5eb86d915082906007906120f29083906154aa565b9081526040519081900360200181208851612113939260049092019161560a565b60405180910390a16121288560600151613142565b610543576121358561382b565b6040518060a0016040528086600001518152602001866020015181526020018660600151600160a060020a0316815260200160028081111561217957612179614cd5565b8152602001600090526060860151600160a060020a03166000908152600660205260409020815181906121ac908261533f565b50602082015160018201906121c1908261533f565b50604082015160028083018054600160a060020a03909316600160a060020a0319841681178255606086015193919274ffffffffffffffffffffffffffffffffffffffffff1990921617907401000000000000000000000000000000000000000090849081111561223457612234614cd5565b0217905550608082015160028201805475ff0000000000000000000000000000000000000000001916750100000000000000000000000000000000000000000083600181111561228657612286614cd5565b021790555050505060609390930151600580546001810182556000919091527f036b6384b5eca791c62761152d0c79bb0604c104a5fb6f4eb0703f3154bb3db0018054600160a060020a031916600160a060020a03909216919091179055505050565b336000818152600360205260408120600201549091606091600160a060020a03166123295760405160e560020a62461bcd0281526004016103219061543c565b600160a060020a03808216600081815260036020526040902060020154909116146123695760405160e560020a62461bcd0281526004016103219061543c565b6000600160a060020a03821660009081526003602052604090206004015462010000900460ff1660018111156123a1576123a1614cd5565b146123c15760405160e560020a62461bcd02815260040161032190615473565b6123cc84600161396b565b9250925050915091565b600454600090606090600160a060020a031633146124095760405160e560020a62461bcd02815260040161032190615405565b61241283613f4e565b91509150915091565b600454600160a060020a031633146124485760405160e560020a62461bcd02815260040161032190615405565b612452828261430b565b600160a060020a0383166000908152600660205260409020600201805475ff000000000000000000000000000000000000000000191675010000000000000000000000000000000000000000008360018111156124b1576124b1614cd5565b02179055505050565b600454600160a060020a031633146124e75760405160e560020a62461bcd02815260040161032190615405565b6124f28383836144d9565b600160a060020a0383166000908152600660205260409020612514828261533f565b50600160a060020a038316600090815260066020526040902060010161253a838261533f565b50505050565b6000606033806125655760405160e560020a62461bcd02815260040161032190615214565b600160a060020a03818116600090815260016020526040902060030154166125a25760405160e560020a62461bcd0281526004016103219061524b565b600160a060020a03811660009081526001602081905260409091200180546125ce919061039390615282565b156125ee5760405160e560020a62461bcd028152600401610321906152b9565b6123cc84600061396b565b612601614820565b336126515760405160e560020a62461bcd02815260206004820152600f60248201527f53656e64657220496420456d70747900000000000000000000000000000000006044820152606401610321565b33600090815260066020526040902060020154600160a060020a031661268c5760405160e560020a62461bcd0281526004016103219061524b565b3360009081526006602052604090819020815160a081019092528054829082906126b590615282565b80601f01602080910402602001604051908101604052809291908181526020018280546126e190615282565b801561272e5780601f106127035761010080835404028352916020019161272e565b820191906000526020600020905b81548152906001019060200180831161271157829003601f168201915b5050505050815260200160018201805461274790615282565b80601f016020809104026020016040519081016040528092919081815260200182805461277390615282565b80156127c05780601f10612795576101008083540402835291602001916127c0565b820191906000526020600020905b8154815290600101906020018083116127a357829003601f168201915b5050509183525050600282810154600160a060020a038116602084015260409092019174010000000000000000000000000000000000000000900460ff169081111561280e5761280e614cd5565b600281111561281f5761281f614cd5565b81526020016002820160159054906101000a900460ff16600181111561284757612847614cd5565b600181111561285857612858614cd5565b905250919050565b33600081815260036020526040902060020154600160a060020a031661289b5760405160e560020a62461bcd0281526004016103219061543c565b600160a060020a03808216600081815260036020526040902060020154909116146128db5760405160e560020a62461bcd0281526004016103219061543c565b6000600160a060020a03821660009081526003602052604090206004015462010000900460ff16600181111561291357612913614cd5565b146129335760405160e560020a62461bcd02815260040161032190615473565b600061293f3386612fde565b905061294a81613026565b6129995760405160e560020a62461bcd02815260206004820152601960248201527f5573657220646f65736e27742068617665204b594320726571000000000000006044820152606401610321565b600084156129bb575060016129ad33614592565b6129b686614604565b6129bf565b5060025b806007836040516129d091906154aa565b908152604051908190036020019020600701805460ff191660018360028111156129fc576129fc614cd5565b021790555083600783604051612a1291906154aa565b90815260200160405180910390206008019081612a2f919061533f565b507f900b83a690e29ff7d6e76e350983afea30403d6c47fe8ce52045fb20074c79a082873384604051612a65949392919061557b565b60405180910390a1505050505050565b600081604051602001612a8891906154aa565b6040516020818303038152906040528051906020012083604051602001612aaf91906154aa565b604051602081830303815290604052805190602001201490505b92915050565b612ad7614729565b600160a060020a03821660009081526001602052604090819020815160e08101909252805482908290612b0990615282565b80601f0160208091040260200160405190810160405280929190818152602001828054612b3590615282565b8015612b825780601f10612b5757610100808354040283529160200191612b82565b820191906000526020600020905b815481529060010190602001808311612b6557829003601f168201915b50505050508152602001600182018054612b9b90615282565b80601f0160208091040260200160405190810160405280929190818152602001828054612bc790615282565b8015612c145780601f10612be957610100808354040283529160200191612c14565b820191906000526020600020905b815481529060010190602001808311612bf757829003601f168201915b50505050508152602001600282018054612c2d90615282565b80601f0160208091040260200160405190810160405280929190818152602001828054612c5990615282565b8015612ca65780601f10612c7b57610100808354040283529160200191612ca6565b820191906000526020600020905b815481529060010190602001808311612c8957829003601f168201915b50505091835250506003820154600160a060020a0390811660208301526004830154166040820152600582018054606090920191612ce390615282565b80601f0160208091040260200160405190810160405280929190818152602001828054612d0f90615282565b8015612d5c5780601f10612d3157610100808354040283529160200191612d5c565b820191906000526020600020905b815481529060010190602001808311612d3f57829003601f168201915b505050505081526020016006820154815250509050919050565b336000908152600160205260409020612d8f848261533f565b5033600090815260016020819052604090912001612dad838261533f565b50336000908152600160205260409020600201612dca828261533f565b507fcfc84fa73e8500b1f994b7616fda16714aa77352defd398c17f8dda41cc92195338484604051612dfe93929190615643565b60405180910390a1505050565b604080820151600160a060020a039081166000908152600360205291909120600201541615612e7f5760405160e560020a62461bcd02815260206004820152601360248201527f4f7267616e697a6174696f6e20657869737473000000000000000000000000006044820152606401610321565b604080820151600160a060020a0316600090815260036020522081518291908190612eaa908261533f565b5060208201516001820190612ebf908261533f565b506040820151600282018054600160a060020a031916600160a060020a0390921691909117905560608201516003820190612efa908261533f565b50608082015160048201805461ffff90921661ffff1983168117825560a08501519262ffffff19161762010000836001811115612f3957612f39614cd5565b0217905550505060408181018051600280546001810182556000919091527f405787fa12a823e0f2b7631cc41b3ba8828b3321ca811111fa75cd3aa3bb5ace018054600160a060020a031916600160a060020a039092169190911790555182516020840151606085015193517fea47a91c40f0b7e51295b8ab2abebbcebfff4103392a408da6d7c3324d9928f194612fd394939291615677565b60405180910390a150565b6040516c01000000000000000000000000600160a060020a03808516820260208401528316026034820152606090604801604051602081830303815290604052905092915050565b60006130418260405180602001604052806000815250612a75565b156130915760405160e560020a62461bcd02815260206004820152601060248201527f5265717565737420496420656d707479000000000000000000000000000000006044820152606401610321565b612ac96007836040516130a491906154aa565b90815260405190819003602001902080546130be90615282565b80601f01602080910402602001604051908101604052809291908181526020018280546130ea90615282565b80156131375780601f1061310c57610100808354040283529160200191613137565b820191906000526020600020905b81548152906001019060200180831161311a57829003601f168201915b505050505083612a75565b6000600160a060020a03821661319d5760405160e560020a62461bcd02815260206004820152600b60248201527f496420697320656d7074790000000000000000000000000000000000000000006044820152606401610321565b600160a060020a0382811660009081526001602052604090206003015416158015906131f25750600160a060020a03821660009081526001602081905260409091200180546131f0919061039390615282565b155b156131fb575060015b919050565b613208614778565b600160a060020a0382166132615760405160e560020a62461bcd02815260206004820152601560248201527f4f7267616e697a6174696f6e20496420456d70747900000000000000000000006044820152606401610321565b600160a060020a03821660009081526003602052604090819020815160c0810190925280548290829061329390615282565b80601f01602080910402602001604051908101604052809291908181526020018280546132bf90615282565b801561330c5780601f106132e15761010080835404028352916020019161330c565b820191906000526020600020905b8154815290600101906020018083116132ef57829003601f168201915b5050505050815260200160018201805461332590615282565b80601f016020809104026020016040519081016040528092919081815260200182805461335190615282565b801561339e5780601f106133735761010080835404028352916020019161339e565b820191906000526020600020905b81548152906001019060200180831161338157829003601f168201915b50505091835250506002820154600160a060020a031660208201526003820180546040909201916133ce90615282565b80601f01602080910402602001604051908101604052809291908181526020018280546133fa90615282565b80156134475780601f1061341c57610100808354040283529160200191613447565b820191906000526020600020905b81548152906001019060200180831161342a57829003601f168201915b5050509183525050600482015461ffff8116602083015260409091019062010000900460ff16600181111561347e5761347e614cd5565b600181111561348f5761348f614cd5565b90525092915050565b60006134a2614729565b60006134ac614729565b60005b85518110156137ad5786600160a060020a03168682815181106134d4576134d46155bf565b6020026020010151600160a060020a03160361379b57600192506001600088600160a060020a0316600160a060020a031681526020019081526020016000206040518060e001604052908160008201805461352e90615282565b80601f016020809104026020016040519081016040528092919081815260200182805461355a90615282565b80156135a75780601f1061357c576101008083540402835291602001916135a7565b820191906000526020600020905b81548152906001019060200180831161358a57829003601f168201915b505050505081526020016001820180546135c090615282565b80601f01602080910402602001604051908101604052809291908181526020018280546135ec90615282565b80156136395780601f1061360e57610100808354040283529160200191613639565b820191906000526020600020905b81548152906001019060200180831161361c57829003601f168201915b5050505050815260200160028201805461365290615282565b80601f016020809104026020016040519081016040528092919081815260200182805461367e90615282565b80156136cb5780601f106136a0576101008083540402835291602001916136cb565b820191906000526020600020905b8154815290600101906020018083116136ae57829003601f168201915b50505091835250506003820154600160a060020a039081166020830152600483015416604082015260058201805460609092019161370890615282565b80601f016020809104026020016040519081016040528092919081815260200182805461373490615282565b80156137815780601f1061375657610100808354040283529160200191613781565b820191906000526020600020905b81548152906001019060200180831161376457829003601f168201915b5050505050815260200160068201548152505091506137ad565b806137a5816155f1565b9150506134af565b50909590945092505050565b3360009081526001602052604090206005016137d5838261533f565b5033600081815260016020526040908190206006810184905590517f844d9124dad5a413c4b99664397291f93f1e89513cd8c3a68674c050283c55619261381f92909186906156ca565b60405180910390a15050565b6060810151600160a060020a0316600090815260016020526040902081518291908190613858908261533f565b506020820151600182019061386d908261533f565b5060408201516002820190613882908261533f565b506060820151600382018054600160a060020a03928316600160a060020a031991821617909155608084015160048401805491909316911617905560a082015160058201906138d1908261533f565b5060c09190910151600690910155606081018051600080546001810182559080527f290decd9548b62a8d60345a988386fc84ba6bc95484008f6362f93160ef3e563018054600160a060020a031916600160a060020a0390921691909117905551815160208301516040517f77eacb4962819f791ebd2750d7be9519622ddcf4c37fe09c6fd33ace5ce32ccb93612fd39390929091615643565b60006060600084116139c25760405160e560020a62461bcd02815260206004820152601360248201527f504e2073686f756c64206265203e207a65726f000000000000000000000000006044820152606401610321565b600080600080613a5388886139e5573360009081526009602052604090206139f5565b3360009081526008602052604090205b805480602002602001604051908101604052809291908181526020018280548015613a4957602002820191906000526020600020905b8154600160a060020a03168152600190910190602001808311613a2b575b5050505050614689565b935093509350935060008367ffffffffffffffff811115613a7657613a766149a0565b604051908082528060200260200182016040528015613aaf57816020015b613a9c6147aa565b815260200190600190039081613a945790505b509050825b82811015613f3e5788613b24573360009081526009602052604090208054600791613b049184908110613ae957613ae96155bf565b600091825260209091200154600160a060020a031633612fde565b604051613b1191906154aa565b9081526020016040518091039020613b84565b3360008181526008602052604090208054600792613b6892909185908110613b4e57613b4e6155bf565b600091825260209091200154600160a060020a0316612fde565b604051613b7591906154aa565b90815260200160405180910390205b60405180610140016040529081600082018054613ba090615282565b80601f0160208091040260200160405190810160405280929190818152602001828054613bcc90615282565b8015613c195780601f10613bee57610100808354040283529160200191613c19565b820191906000526020600020905b815481529060010190602001808311613bfc57829003601f168201915b50505091835250506001820154600160a060020a03166020820152600282018054604090920191613c4990615282565b80601f0160208091040260200160405190810160405280929190818152602001828054613c7590615282565b8015613cc25780601f10613c9757610100808354040283529160200191613cc2565b820191906000526020600020905b815481529060010190602001808311613ca557829003601f168201915b50505091835250506003820154600160a060020a03166020820152600482018054604090920191613cf290615282565b80601f0160208091040260200160405190810160405280929190818152602001828054613d1e90615282565b8015613d6b5780601f10613d4057610100808354040283529160200191613d6b565b820191906000526020600020905b815481529060010190602001808311613d4e57829003601f168201915b50505050508152602001600582018054613d8490615282565b80601f0160208091040260200160405190810160405280929190818152602001828054613db090615282565b8015613dfd5780601f10613dd257610100808354040283529160200191613dfd565b820191906000526020600020905b815481529060010190602001808311613de057829003601f168201915b505050918352505060068201546020820152600782015460409091019060ff166002811115613e2e57613e2e614cd5565b6002811115613e3f57613e3f614cd5565b81526020016007820160019054906101000a900460ff166002811115613e6757613e67614cd5565b6002811115613e7857613e78614cd5565b8152602001600882018054613e8c90615282565b80601f0160208091040260200160405190810160405280929190818152602001828054613eb890615282565b8015613f055780601f10613eda57610100808354040283529160200191613f05565b820191906000526020600020905b815481529060010190602001808311613ee857829003601f168201915b505050505081525050828281518110613f2057613f206155bf565b60200260200101819052508080613f36906155f1565b915050613ab4565b5093989397509295505050505050565b6000606060008311613fa55760405160e560020a62461bcd02815260206004820152601060248201527f504e2073686f756c64206265203e2030000000000000000000000000000000006044820152606401610321565b60008060008061400d876002805480602002602001604051908101604052809291908181526020018280548015613a4957602002820191906000526020600020908154600160a060020a03168152600190910190602001808311613a2b575050505050614689565b935093509350935060008367ffffffffffffffff811115614030576140306149a0565b60405190808252806020026020018201604052801561406957816020015b614056614778565b81526020019060019003908161404e5790505b509050825b828110156142fc57600360006002838154811061408d5761408d6155bf565b6000918252602080832090910154600160a060020a031683528201929092526040908101909120815160c081019092528054829082906140cc90615282565b80601f01602080910402602001604051908101604052809291908181526020018280546140f890615282565b80156141455780601f1061411a57610100808354040283529160200191614145565b820191906000526020600020905b81548152906001019060200180831161412857829003601f168201915b5050505050815260200160018201805461415e90615282565b80601f016020809104026020016040519081016040528092919081815260200182805461418a90615282565b80156141d75780601f106141ac576101008083540402835291602001916141d7565b820191906000526020600020905b8154815290600101906020018083116141ba57829003601f168201915b50505091835250506002820154600160a060020a0316602082015260038201805460409092019161420790615282565b80601f016020809104026020016040519081016040528092919081815260200182805461423390615282565b80156142805780601f1061425557610100808354040283529160200191614280565b820191906000526020600020905b81548152906001019060200180831161426357829003601f168201915b5050509183525050600482015461ffff8116602083015260409091019062010000900460ff1660018111156142b7576142b7614cd5565b60018111156142c8576142c8614cd5565b815250508282815181106142de576142de6155bf565b602002602001018190525080806142f4906155f1565b91505061406e565b50939793965092945050505050565b600160a060020a0382811660009081526003602052604081206002015490911661434a5760405160e560020a62461bcd0281526004016103219061543c565b81801561438c57506001600160a060020a03841660009081526003602052604090206004015462010000900460ff16600181111561438a5761438a614cd5565b145b156143f957600160a060020a0383166000908152600360205260409081902060048101805462ff00001916905590517f45eacc392370adfc1471be1b9e5762f8d83fd9c74c7aebe70ce26689b5b7dc24916143e9918691906156ec565b60405180910390a1506000612ac9565b8115801561443c57506000600160a060020a03841660009081526003602052604090206004015462010000900460ff16600181111561443a5761443a614cd5565b145b156144ae57600160a060020a0383166000908152600360205260409081902060048101805462ff000019166201000017905590517f5826740c313a0fa1bc7628d349ddb8a89288dfffd7a07a3f880574ecf683e8c19161449e918691906156ec565b60405180910390a1506001612ac9565b50600160a060020a03821660009081526003602052604090206004015462010000900460ff16612ac9565b600160a060020a03838116600090815260036020526040902060020154166145165760405160e560020a62461bcd0281526004016103219061543c565b600160a060020a0383166000908152600360205260409020614538828261533f565b50600160a060020a038316600090815260036020526040902060010161455e838261533f565b507f2410b0bb4e20454923b00f8000e58b62005802af9c3b3e0b44ca3ccfbd2a213a838284604051612dfe93929190615643565b600160a060020a0381166145bb5760405160e560020a62461bcd0281526004016103219061543c565b600160a060020a0381166000908152600360205260408120600401805461ffff16916145e683615716565b91906101000a81548161ffff021916908361ffff1602179055505050565b600160a060020a03811661465d5760405160e560020a62461bcd02815260206004820152601160248201527f437573746f6d657220496420456d7074790000000000000000000000000000006044820152606401610321565b600160a060020a031660009081526001602052604090206004018054600160a060020a03191633179055565b60008060008060006019865161469f9190615750565b9050601986516146af9190615764565b945080156146c557846146c1816155f1565b9550505b601993506146d4600188615778565b6146df90601961578b565b92506146ec87601961578b565b91508487111561470357600093506000915061471f565b84871480156147125750600081115b1561471f57809350855191505b5092959194509250565b6040518060e001604052806060815260200160608152602001606081526020016000600160a060020a031681526020016000600160a060020a0316815260200160608152602001600081525090565b6040805160c081018252606080825260208201819052600092820183905280820152608081018290529060a082015290565b604051806101400160405280606081526020016000600160a060020a03168152602001606081526020016000600160a060020a031681526020016060815260200160608152602001600081526020016000600281111561480c5761480c614cd5565b815260200160008152602001606081525090565b6040518060a0016040528060608152602001606081526020016000600160a060020a031681526020016000600281111561485c5761485c614cd5565b81526020016000905290565b8035600160a060020a03811681146131fb57600080fd5b60006020828403121561489157600080fd5b61489a82614868565b9392505050565b60005b838110156148bc5781810151838201526020016148a4565b50506000910152565b600081518084526148dd8160208601602086016148a1565b601f01601f19169290920160200192915050565b6000815160e0845261490660e08501826148c5565b90506020830151848203602086015261491f82826148c5565b9150506040830151848203604086015261493982826148c5565b9150506060830151600160a060020a038082166060870152806080860151166080870152505060a083015184820360a086015261497682826148c5565b91505060c083015160c08501528091505092915050565b60208152600061489a60208301846148f1565b60e060020a634e487b7102600052604160045260246000fd5b60405160c0810167ffffffffffffffff811182821017156149dc576149dc6149a0565b60405290565b60405160e0810167ffffffffffffffff811182821017156149dc576149dc6149a0565b600082601f830112614a1657600080fd5b813567ffffffffffffffff80821115614a3157614a316149a0565b604051601f8301601f19908116603f01168101908282118183101715614a5957614a596149a0565b81604052838152866020858801011115614a7257600080fd5b836020870160208301376000602085830101528094505050505092915050565b600080600060608486031215614aa757600080fd5b833567ffffffffffffffff80821115614abf57600080fd5b614acb87838801614a05565b94506020860135915080821115614ae157600080fd5b614aed87838801614a05565b93506040860135915080821115614b0357600080fd5b50614b1086828701614a05565b9150509250925092565b803561ffff811681146131fb57600080fd5b8035600281106131fb57600080fd5b600060208284031215614b4d57600080fd5b813567ffffffffffffffff80821115614b6557600080fd5b9083019060c08286031215614b7957600080fd5b614b816149b9565b823582811115614b9057600080fd5b614b9c87828601614a05565b825250602083013582811115614bb157600080fd5b614bbd87828601614a05565b602083015250614bcf60408401614868565b6040820152606083013582811115614be657600080fd5b614bf287828601614a05565b606083015250614c0460808401614b1a565b6080820152614c1560a08401614b2c565b60a082015295945050505050565b60008060408385031215614c3657600080fd5b614c3f83614868565b9150602083013567ffffffffffffffff811115614c5b57600080fd5b614c6785828601614a05565b9150509250929050565b803580151581146131fb57600080fd5b600080600060608486031215614c9657600080fd5b614c9f84614868565b9250614cad60208501614c71565b9150604084013567ffffffffffffffff811115614cc957600080fd5b614b1086828701614a05565b60e060020a634e487b7102600052602160045260246000fd5b60028110614cfe57614cfe614cd5565b9052565b6000815160c08452614d1760c08501826148c5565b905060208301518482036020860152614d3082826148c5565b915050600160a060020a03604084015116604085015260608301518482036060860152614d5d82826148c5565b91505061ffff608084015116608085015260a0830151614d8060a0860182614cee565b509392505050565b60038110614d9857614d98614cd5565b50565b614cfe81614d88565b60006101408251818552614dba828601826148c5565b9150506020830151614dd76020860182600160a060020a03169052565b5060408301518482036040860152614def82826148c5565b9150506060830151614e0c6060860182600160a060020a03169052565b5060808301518482036080860152614e2482826148c5565b91505060a083015184820360a0860152614e3e82826148c5565b91505060c083015160c085015260e0830151614e5d60e0860182614d9b565b5061010080840151614e7182870182614d9b565b50506101208084015185830382870152614e8b83826148c5565b9695505050505050565b8315158152606060208201526000614eb06060830185614d02565b8281036040840152614e8b8185614da4565b8315158152606060208201526000614eb060608301856148f1565b60208152600061489a6020830184614d02565b60008060408385031215614f0357600080fd5b823567ffffffffffffffff811115614f1a57600080fd5b614f2685828601614a05565b95602094909401359450505050565b600080600060608486031215614f4a57600080fd5b833567ffffffffffffffff80821115614f6257600080fd5b9085019060e08288031215614f7657600080fd5b614f7e6149e2565b823582811115614f8d57600080fd5b614f9989828601614a05565b825250602083013582811115614fae57600080fd5b614fba89828601614a05565b602083015250604083013582811115614fd257600080fd5b614fde89828601614a05565b604083015250614ff060608401614868565b606082015261500160808401614868565b608082015260a08301358281111561501857600080fd5b61502489828601614a05565b60a08301525060c083013560c082015280955050602086013593506040860135915080821115614b0357600080fd5b60006020828403121561506557600080fd5b5035919050565b60006040820184835260206040818501528185518084526060860191506060838202870101935082870160005b828110156150c757605f198887030184526150b5868351614da4565b95509284019290840190600101615099565b509398975050505050505050565b60006040820184835260206040818501528185518084526060860191506060838202870101935082870160005b828110156150c757605f1988870301845261511e868351614d02565b95509284019290840190600101615102565b6000806040838503121561514357600080fd5b61514c83614868565b915061515a60208401614c71565b90509250929050565b60008060006060848603121561517857600080fd5b61518184614868565b9250602084013567ffffffffffffffff80821115614ae157600080fd5b602081526000825160a060208401526151ba60c08401826148c5565b90506020840151601f198483030160408501526151d782826148c5565b915050600160a060020a03604085015116606084015260608401516151fb81614d88565b806080850152506080840151614d8060a0850182614cee565b6020808252600b908201527f496420697320456d707479000000000000000000000000000000000000000000604082015260600190565b6020808252600d908201527f5573657220496420456d70747900000000000000000000000000000000000000604082015260600190565b60028104600182168061529657607f821691505b6020821081036104525760e060020a634e487b7102600052602260045260246000fd5b60208082526010908201527f5573657220456d61696c20456d70747900000000000000000000000000000000604082015260600190565b601f82111561533a576000818152602081206020601f860104810160208610156153175750805b6020601f860104820191505b8181101561533657828155600101615323565b5050505b505050565b815167ffffffffffffffff811115615359576153596149a0565b61536d816153678454615282565b846152f0565b602080601f8311600181146153a6576000841561538a5750858301515b60028086026008870290910a6000190419821617865550615336565b600085815260208120601f198616915b828110156153d5578886015182559484019460019091019084016153b6565b50858210156153f557878501516008601f88160260020a60001904191681555b5050505050600202600101905550565b60208082526015908201527f4f6e6c792061646d696e20697320616c6c6f7765640000000000000000000000604082015260600190565b60208082526016908201527f4f7267616e697a6174696f6e206e6f7420666f756e6400000000000000000000604082015260600190565b6020808252601a908201527f4f7267616e697a6174696f6e206973206e6f7420616374697665000000000000604082015260600190565b600082516154bc8184602087016148a1565b9190910192915050565b600081546154d381615282565b8085526020600183811680156154f0576001811461550957615537565b60ff198516888401528315158302880183019550615537565b866000528260002060005b8581101561552f5781548a8201860152908301908401615514565b890184019650505b505050505092915050565b60608152600061555560608301866148c5565b828103602084015261556781866154c6565b90508281036040840152614e8b81856154c6565b60808152600061558e60808301876148c5565b600160a060020a0386811660208501528516604084015290506155b083614d88565b82606083015295945050505050565b60e060020a634e487b7102600052603260045260246000fd5b60e060020a634e487b7102600052601160045260246000fd5b600060018201615603576156036155d8565b5060010190565b60608152600061561d60608301866148c5565b828103602084015261562f81866154c6565b90508281036040840152614e8b81856148c5565b600160a060020a038416815260606020820152600061566560608301856148c5565b8281036040840152614e8b81856148c5565b600160a060020a038516815260806020820152600061569960808301866148c5565b82810360408401526156ab81866148c5565b905082810360608401526156bf81856148c5565b979650505050505050565b600160a060020a038416815260606020820152600061566560608301856154c6565b600160a060020a038316815260406020820152600061570e60408301846154c6565b949350505050565b600061ffff80831681810361572d5761572d6155d8565b6001019392505050565b60e060020a634e487b7102600052601260045260246000fd5b60008261575f5761575f615737565b500690565b60008261577357615773615737565b500490565b81810381811115612ac957612ac96155d8565b8082028115828204841417612ac957612ac96155d856fea26469706673582212203da57da81e3c3c6b8677dd9aac807aa727be46d373d9acda5da79322bca67ed564736f6c63430008150033",
  "immutableReferences": {},
  "source": "// SPDX-License-Identifier: GPL-3.0\npragma solidity >=0.4.16 <0.9.0;\n\n/** \nAssumptions\n* Finanicial Institutions - Organization\n* Users - Customer\n* Super Admin - Admin\n*/\n\nimport \"./Customers.sol\";\nimport \"./Organizations.sol\";\n\n/**\n * @title KYC\n * @author Suresh Konakanchi\n * @dev Library for managing KYC process seemlessly using de-centralised system\n */\ncontract KYC is Customers, Organizations {\n    address admin;\n    address[] internal userList;\n\n    mapping(address => Types.User) internal users;\n    mapping(string => Types.KycRequest) internal kycRequests;\n    mapping(address => address[]) internal organizationCustomers; // All customers associated to a Organization\n    mapping(address => address[]) internal customerorganizations; // All organizations associated to a Customer\n\n    /**\n     * @notice Set admin to one who deploy this contract\n     * Who will act as the super-admin to add all the financial institutions (organizations)\n     * @param name_ Name of the admin\n     * @param email_ Email of the admin\n     */\n    constructor(string memory name_, string memory email_) {\n        admin = msg.sender;\n        Types.User memory usr_ = Types.User({\n            name: name_,\n            email: email_,\n            id_: admin,\n            role: Types.Role.Admin,\n            status: Types.OrganizationStatus.Active\n        });\n        users[admin] = usr_;\n        userList.push(admin);\n    }\n\n    // Modifiers\n\n    /**\n     * @notice Checks whether the requestor is admin\n     */\n    modifier isAdmin() {\n        require(msg.sender == admin, \"Only admin is allowed\");\n        _;\n    }\n\n    // Support functions\n\n    /**\n     * @notice Checks whether the KYC request already exists\n     * @param reqId_ Unique Id of the KYC request\n     * @return boolean which says request exists or not\n     */\n    function kycRequestExists(string memory reqId_)\n        internal\n        view\n        returns (bool)\n    {\n        require(!Helpers.compareStrings(reqId_, \"\"), \"Request Id empty\");\n        return Helpers.compareStrings(kycRequests[reqId_].id_, reqId_);\n    }\n\n    /**\n     * @notice All kyc requests. Data will be sent in pages to avoid the more gas fee\n     * @param pageNumber page number for which data is needed (1..2..3....n)\n     * @param isForOrganization List needed for organization or for customer\n     * @return totalPages Total pages available\n     * @return KycRequest[] List of KYC requests in the current page\n     */\n    function getKYCRequests(uint256 pageNumber, bool isForOrganization)\n        internal\n        view\n        returns (uint256 totalPages, Types.KycRequest[] memory)\n    {\n        require(pageNumber > 0, \"PN should be > zero\");\n        (\n            uint256 pages,\n            uint256 pageLength_,\n            uint256 startIndex_,\n            uint256 endIndex_\n        ) = Helpers.getIndexes(\n                pageNumber,\n                isForOrganization\n                    ? organizationCustomers[msg.sender]\n                    : customerorganizations[msg.sender]\n            );\n        Types.KycRequest[] memory list_ = new Types.KycRequest[](pageLength_);\n        for (uint256 i = startIndex_; i < endIndex_; i++)\n            list_[i] = isForOrganization\n                ? kycRequests[\n                    Helpers.append(msg.sender, organizationCustomers[msg.sender][i])\n                ]\n                : kycRequests[\n                    Helpers.append(customerorganizations[msg.sender][i], msg.sender)\n                ];\n        return (pages, list_);\n    }\n\n    // Events\n\n    event KycRequestAdded(string reqId, string organizationName, string customerName);\n    event KycReRequested(string reqId, string organizationName, string customerName);\n    event KycStatusChanged(\n        string reqId,\n        address customerId,\n        address organizationId,\n        Types.KycStatus status\n    );\n    event DataHashPermissionChanged(\n        string reqId,\n        address customerId,\n        address organizationId,\n        Types.DataHashStatus status\n    );\n\n    // Admin Interface\n\n    /**\n     * @dev All the organizations list. Data will be sent in pages to avoid the more gas fee\n     * @param pageNumber page number for which data is needed (1..2..3....n)\n     * @return totalPages Total pages available\n     * @return Organization[] List of organizations in the current page\n     */\n    function getAllOrganizations(uint256 pageNumber)\n        public\n        view\n        isAdmin\n        returns (uint256 totalPages, Types.Organization[] memory)\n    {\n        return getallorganizations(pageNumber);\n    }\n\n    /**\n     * @dev To add new organization account\n     * @param organization_ Organization details, which need to be added to the system\n     */\n    function addOrganization(Types.Organization memory organization_) public isAdmin {\n        addorganization(organization_);\n        // Adding to common list\n        users[organization_.id_] = Types.User({\n            name: organization_.name,\n            email: organization_.email,\n            id_: organization_.id_,\n            role: Types.Role.Organization,\n            status: Types.OrganizationStatus.Active\n        });\n        userList.push(organization_.id_);\n    }\n\n    /**\n     * @dev To add new organization account\n     * @param id_ Organization's metamask address\n     * @param email_ Organization's email address that need to be updated\n     * @param name_ Organization's name which need to be updated\n     */\n    function updateOrganizationDetails(\n        address id_,\n        string memory email_,\n        string memory name_\n    ) public isAdmin {\n        updateorganization(id_, email_, name_);\n        // Updating in common list\n        users[id_].name = name_;\n        users[id_].email = email_;\n    }\n\n    /**\n     * @dev To add new organization account\n     * @param id_ Organization's metamask address\n     * @param makeActive_ If true, organization will be marked as active, else, it will be marked as deactivateds\n     */\n    function activateDeactivateOrganization(address id_, bool makeActive_)\n        public\n        isAdmin\n    {\n        // Updating in common list\n        users[id_].status = activatedeactivateorganization(id_, makeActive_);\n    }\n\n    // Organization Interface\n\n    /**\n     * @dev List of customers, who are linked to the current organization. Data will be sent in pages to avoid the more gas fee\n     * @param pageNumber page number for which data is needed (1..2..3....n)\n     * @return totalPages Total pages available\n     * @return KycRequest[] List of KYC requests in the current page\n     */\n    function getCustomersOfOrganization(uint256 pageNumber)\n        public\n        view\n        isValidOrganization(msg.sender)\n        returns (uint256 totalPages, Types.KycRequest[] memory)\n    {\n        return getKYCRequests(pageNumber, true);\n    }\n\n    /**\n     * @notice Records new KYC request for a customer\n     * @param customer_ Customer details for whom the request is to be raised\n     * @param currentTime_ Current Date & Time in unix epoch timestamp\n     * @param notes_ Any additional notes that need to be added\n     */\n    function addKycRequest(\n        Types.Customer memory customer_,\n        uint256 currentTime_,\n        string memory notes_\n    ) public isValidOrganization(msg.sender) {\n        string memory reqId_ = Helpers.append(msg.sender, customer_.id_);\n        require(!kycRequestExists(reqId_), \"User had kyc req.\");\n\n        kycRequests[reqId_] = Types.KycRequest({\n            id_: reqId_,\n            userId_: customer_.id_,\n            customerName: customer_.name,\n            organizationId_: msg.sender,\n            organizationName: getsingleorganization(msg.sender).name,\n            dataHash: customer_.dataHash,\n            updatedOn: currentTime_,\n            status: Types.KycStatus.Pending,\n            dataRequest: Types.DataHashStatus.Pending,\n            additionalNotes: notes_\n        });\n        organizationCustomers[msg.sender].push(customer_.id_);\n        customerorganizations[customer_.id_].push(msg.sender);\n        emit KycRequestAdded(\n            reqId_,\n            kycRequests[reqId_].organizationName,\n            customer_.name\n        );\n\n        if (!customerExists(customer_.id_)) {\n            addcustomer(customer_);\n            // Adding to common list\n            users[customer_.id_] = Types.User({\n                name: customer_.name,\n                email: customer_.email,\n                id_: customer_.id_,\n                role: Types.Role.Customer,\n                status: Types.OrganizationStatus.Active\n            });\n            userList.push(customer_.id_);\n        }\n    }\n\n    /**\n     * @notice Updates existing KYC request for a customer (It's a re-request)\n     * @param id_ Customer ID for whom the request has to be re-raised\n     * @param notes_ Any additional notes that need to be added\n     */\n    function reRequestForKycRequest(address id_, string memory notes_)\n        public\n        isValidOrganization(msg.sender)\n    {\n        string memory reqId_ = Helpers.append(msg.sender, id_);\n        require(kycRequestExists(reqId_), \"KYC req not found\");\n        require(customerExists(id_), \"User not found\");\n\n        // kycRequests[reqId_].status = Types.KycStatus.Pending;\n        kycRequests[reqId_].dataRequest = Types.DataHashStatus.Pending;\n        kycRequests[reqId_].additionalNotes = notes_;\n\n        emit KycReRequested(\n            reqId_,\n            kycRequests[reqId_].organizationName,\n            kycRequests[reqId_].customerName\n        );\n    }\n\n    /**\n     * @dev To mark the KYC verification as failure\n     * @param userId_ Id of the user\n     * @param userId_ KYC Verified\n     * @param note_ Any info that need to be shared\n     */\n    function updateKycVerification(\n        address userId_,\n        bool verified_,\n        string memory note_\n    ) public isValidOrganization(msg.sender) {\n        string memory reqId_ = Helpers.append(msg.sender, userId_);\n        require(kycRequestExists(reqId_), \"User doesn't have KYC req\");\n\n        Types.KycStatus status_ = Types.KycStatus.Pending;\n        if (verified_) {\n            status_ = Types.KycStatus.KYCVerified;\n            updatekyccount(msg.sender);\n            updatekycdoneby(userId_);\n        } else {\n            status_ = Types.KycStatus.KYCFailed;\n        }\n\n        kycRequests[reqId_].status = status_;\n        kycRequests[reqId_].additionalNotes = note_;\n        emit KycStatusChanged(reqId_, userId_, msg.sender, status_);\n    }\n\n    /**\n     * @dev Search for customer details in the list that the organization is directly linked to\n     * @param id_ Customer's metamask Id\n     * @return boolean to say if customer exists or not\n     * @return Customer object to get the complete details of the customer\n     * @return KycRequest object to get the details about the request & it's status\n     * Costly operation if we had more customers linked to this single organization\n     */\n    function searchCustomers(address id_)\n        public\n        view\n        isValidCustomer(id_)\n        isValidOrganization(msg.sender)\n        returns (\n            bool,\n            Types.Customer memory,\n            Types.KycRequest memory\n        )\n    {\n        bool found_;\n        Types.Customer memory customer_;\n        Types.KycRequest memory request_;\n        (found_, customer_) = searchcustomers(id_, organizationCustomers[msg.sender]);\n        if (found_) request_ = kycRequests[Helpers.append(msg.sender, id_)];\n        return (found_, customer_, request_);\n    }\n\n    // Customer Interface\n\n    /**\n     * @notice List of all organizations. Data will be sent in pages to avoid the more gas fee\n     * @dev This is customer facing RPC end point\n     * @param pageNumber page number for which data is needed (1..2..3....n)\n     * @return totalPages Total pages available\n     * @return KycRequest[] List of KYC requests in the current page\n     */\n    function getOrganizationRequests(uint256 pageNumber)\n        public\n        view\n        isValidCustomer(msg.sender)\n        returns (uint256 totalPages, Types.KycRequest[] memory)\n    {\n        return getKYCRequests(pageNumber, false);\n    }\n\n    /**\n     * @dev Updates the KYC request (Either Approves or Rejects)\n     * @param organizationId_ Id of the organization\n     * @param approve_ Approve the data hash or reject\n     * @param note_ Any info that need to be shared\n     */\n    function actionOnKycRequest(\n        address organizationId_,\n        bool approve_,\n        string memory note_\n    ) public isValidCustomer(msg.sender) isValidOrganization(organizationId_) {\n        string memory reqId_ = Helpers.append(organizationId_, msg.sender);\n        require(kycRequestExists(reqId_), \"User doesn't have KYC req\");\n\n        Types.DataHashStatus status_ = Types.DataHashStatus.Pending;\n        if (approve_) {\n            status_ = Types.DataHashStatus.Approved;\n        } else {\n            status_ = Types.DataHashStatus.Rejected;\n        }\n        kycRequests[reqId_].dataRequest = status_;\n        kycRequests[reqId_].additionalNotes = note_;\n\n        emit DataHashPermissionChanged(reqId_, msg.sender, organizationId_, status_);\n    }\n\n    /**\n     * @dev Updates the user profile\n     * @param name_ Customer name\n     * @param email_ Email that need to be updated\n     * @param mobile_ Mobile number that need to be updated\n     */\n    function updateProfile(\n        string memory name_,\n        string memory email_,\n        string memory mobile_\n    ) public isValidCustomer(msg.sender) {\n        updateprofile(name_, email_, mobile_);\n        // Updating in common list\n        users[msg.sender].name = name_;\n        users[msg.sender].email = email_;\n    }\n\n    /**\n     * @dev Updates the Datahash of the documents\n     * @param hash_ Data hash value that need to be updated\n     * @param currentTime_ Current Date Time in unix epoch timestamp\n     */\n    function updateDatahash(string memory hash_, uint256 currentTime_)\n        public\n        isValidCustomer(msg.sender)\n    {\n        updatedatahash(hash_, currentTime_);\n\n        // Reset KYC verification status for all organizations\n        address[] memory organizationsList_ = customerorganizations[msg.sender];\n        for (uint256 i = 0; i < organizationsList_.length; i++) {\n            string memory reqId_ = Helpers.append(organizationsList_[i], msg.sender);\n            if (kycRequestExists(reqId_)) {\n                kycRequests[reqId_].dataHash = hash_;\n                kycRequests[reqId_].updatedOn = currentTime_;\n                kycRequests[reqId_].status = Types.KycStatus.Pending;\n                kycRequests[reqId_].additionalNotes = \"Updated all my docs\";\n            }\n        }\n    }\n\n    /**\n     * @dev Removes the permission to a specific organization, so that they can't access the documents again\n     * @param organizationId_ Id of the organization to whom permission has to be revoked\n     * @param notes_ Any additional notes that need to included\n     */\n    function removerDatahashPermission(address organizationId_, string memory notes_)\n        public\n        isValidCustomer(msg.sender)\n    {\n        string memory reqId_ = Helpers.append(organizationId_, msg.sender);\n        require(kycRequestExists(reqId_), \"Permission not found\");\n        kycRequests[reqId_].dataRequest = Types.DataHashStatus.Rejected;\n        kycRequests[reqId_].additionalNotes = notes_;\n        emit DataHashPermissionChanged(\n            reqId_,\n            msg.sender,\n            organizationId_,\n            Types.DataHashStatus.Rejected\n        );\n    }\n\n    /**\n     * @dev Search for organization details in the list that the customer is directly linked to\n     * @param organizationId_ Organization's metamask Id\n     * @return boolean to say if organization exists or not\n     * @return Organization object to get the complete details of the organization\n     * @return KycRequest object to get the details about the request & it's status\n     * Costly operation if we had more organizations linked to this single customer\n     */\n    function searchOrganizations(address organizationId_)\n        public\n        view\n        isValidCustomer(msg.sender)\n        isValidOrganization(organizationId_)\n        returns (\n            bool,\n            Types.Organization memory,\n            Types.KycRequest memory\n        )\n    {\n        bool found_;\n        Types.Organization memory organization_;\n        Types.KycRequest memory request_;\n        address[] memory organizations_ = customerorganizations[msg.sender];\n\n        for (uint256 i = 0; i < organizations_.length; i++) {\n            if (organizations_[i] == organizationId_) {\n                found_ = true;\n                organization_ = getsingleorganization(organizationId_);\n                request_ = kycRequests[Helpers.append(organizationId_, msg.sender)];\n                break;\n            }\n        }\n        return (found_, organization_, request_);\n    }\n\n    // Common Interface\n\n    /**\n     * @dev Updates the KYC request (Either Approves or Rejects)\n     * @return User object which contains the role & other basic info\n     */\n    function whoAmI() public view returns (Types.User memory) {\n        require(msg.sender != address(0), \"Sender Id Empty\");\n        require(users[msg.sender].id_ != address(0), \"User Id Empty\");\n        return users[msg.sender];\n    }\n\n    /**\n     * @dev To get details of the customer\n     * @param id_ Customer's metamask address\n     * @return Customer object which will have complete details of the customer\n     */\n    function getCustomerDetails(address id_)\n        public\n        view\n        isValidCustomer(id_)\n        returns (Types.Customer memory)\n    {\n        return getcustomerdetails(id_);\n    }\n\n    /**\n     * @dev To get details of the organization\n     * @param id_ Organization's metamask address\n     * @return Organization object which will have complete details of the organization\n     */\n    function getOrganizationDetails(address id_)\n        public\n        view\n        isValidOrganization(id_)\n        returns (Types.Organization memory)\n    {\n        return getsingleorganization(id_);\n    }\n}\n",
  "sourcePath": "C:\\Users\\nhath\\Desktop\\88credit_microservices\\88credit_ekyc\\blockchain\\contracts\\KYC.sol",
  "compiler": {
    "name": "solc",
    "version": "0.8.21+commit.d9974bed.Emscripten.clang"
  },
  "schemaVersion": "3.4.16",
  "updatedAt": "2024-06-07T02:57:32.041Z",
  "networkType": "ethereum",
  "devdoc": {
    "author": "Suresh Konakanchi",
    "details": "Library for managing KYC process seemlessly using de-centralised system",
    "kind": "dev",
    "methods": {
      "actionOnKycRequest(address,bool,string)": {
        "details": "Updates the KYC request (Either Approves or Rejects)",
        "params": {
          "approve_": "Approve the data hash or reject",
          "note_": "Any info that need to be shared",
          "organizationId_": "Id of the organization"
        }
      },
      "activateDeactivateOrganization(address,bool)": {
        "details": "To add new organization account",
        "params": {
          "id_": "Organization's metamask address",
          "makeActive_": "If true, organization will be marked as active, else, it will be marked as deactivateds"
        }
      },
      "addKycRequest((string,string,string,address,address,string,uint256),uint256,string)": {
        "params": {
          "currentTime_": "Current Date & Time in unix epoch timestamp",
          "customer_": "Customer details for whom the request is to be raised",
          "notes_": "Any additional notes that need to be added"
        }
      },
      "addOrganization((string,string,address,string,uint16,uint8))": {
        "details": "To add new organization account",
        "params": {
          "organization_": "Organization details, which need to be added to the system"
        }
      },
      "constructor": {
        "params": {
          "email_": "Email of the admin",
          "name_": "Name of the admin"
        }
      },
      "getAllOrganizations(uint256)": {
        "details": "All the organizations list. Data will be sent in pages to avoid the more gas fee",
        "params": {
          "pageNumber": "page number for which data is needed (1..2..3....n)"
        },
        "returns": {
          "_1": "Organization[] List of organizations in the current page",
          "totalPages": "Total pages available"
        }
      },
      "getCustomerDetails(address)": {
        "details": "To get details of the customer",
        "params": {
          "id_": "Customer's metamask address"
        },
        "returns": {
          "_0": "Customer object which will have complete details of the customer"
        }
      },
      "getCustomersOfOrganization(uint256)": {
        "details": "List of customers, who are linked to the current organization. Data will be sent in pages to avoid the more gas fee",
        "params": {
          "pageNumber": "page number for which data is needed (1..2..3....n)"
        },
        "returns": {
          "_1": "KycRequest[] List of KYC requests in the current page",
          "totalPages": "Total pages available"
        }
      },
      "getOrganizationDetails(address)": {
        "details": "To get details of the organization",
        "params": {
          "id_": "Organization's metamask address"
        },
        "returns": {
          "_0": "Organization object which will have complete details of the organization"
        }
      },
      "getOrganizationRequests(uint256)": {
        "details": "This is customer facing RPC end point",
        "params": {
          "pageNumber": "page number for which data is needed (1..2..3....n)"
        },
        "returns": {
          "_1": "KycRequest[] List of KYC requests in the current page",
          "totalPages": "Total pages available"
        }
      },
      "reRequestForKycRequest(address,string)": {
        "params": {
          "id_": "Customer ID for whom the request has to be re-raised",
          "notes_": "Any additional notes that need to be added"
        }
      },
      "removerDatahashPermission(address,string)": {
        "details": "Removes the permission to a specific organization, so that they can't access the documents again",
        "params": {
          "notes_": "Any additional notes that need to included",
          "organizationId_": "Id of the organization to whom permission has to be revoked"
        }
      },
      "searchCustomers(address)": {
        "details": "Search for customer details in the list that the organization is directly linked to",
        "params": {
          "id_": "Customer's metamask Id"
        },
        "returns": {
          "_0": "boolean to say if customer exists or not",
          "_1": "Customer object to get the complete details of the customer",
          "_2": "KycRequest object to get the details about the request & it's status Costly operation if we had more customers linked to this single organization"
        }
      },
      "searchOrganizations(address)": {
        "details": "Search for organization details in the list that the customer is directly linked to",
        "params": {
          "organizationId_": "Organization's metamask Id"
        },
        "returns": {
          "_0": "boolean to say if organization exists or not",
          "_1": "Organization object to get the complete details of the organization",
          "_2": "KycRequest object to get the details about the request & it's status Costly operation if we had more organizations linked to this single customer"
        }
      },
      "updateDatahash(string,uint256)": {
        "details": "Updates the Datahash of the documents",
        "params": {
          "currentTime_": "Current Date Time in unix epoch timestamp",
          "hash_": "Data hash value that need to be updated"
        }
      },
      "updateKycVerification(address,bool,string)": {
        "details": "To mark the KYC verification as failure",
        "params": {
          "note_": "Any info that need to be shared",
          "userId_": "KYC Verified"
        }
      },
      "updateOrganizationDetails(address,string,string)": {
        "details": "To add new organization account",
        "params": {
          "email_": "Organization's email address that need to be updated",
          "id_": "Organization's metamask address",
          "name_": "Organization's name which need to be updated"
        }
      },
      "updateProfile(string,string,string)": {
        "details": "Updates the user profile",
        "params": {
          "email_": "Email that need to be updated",
          "mobile_": "Mobile number that need to be updated",
          "name_": "Customer name"
        }
      },
      "whoAmI()": {
        "details": "Updates the KYC request (Either Approves or Rejects)",
        "returns": {
          "_0": "User object which contains the role & other basic info"
        }
      }
    },
    "title": "KYC",
    "version": 1
  },
  "userdoc": {
    "kind": "user",
    "methods": {
      "addKycRequest((string,string,string,address,address,string,uint256),uint256,string)": {
        "notice": "Records new KYC request for a customer"
      },
      "constructor": {
        "notice": "Set admin to one who deploy this contract Who will act as the super-admin to add all the financial institutions (organizations)"
      },
      "getOrganizationRequests(uint256)": {
        "notice": "List of all organizations. Data will be sent in pages to avoid the more gas fee"
      },
      "reRequestForKycRequest(address,string)": {
        "notice": "Updates existing KYC request for a customer (It's a re-request)"
      }
    },
    "version": 1
  }
}